:020000040800F2
:10000000E81400201502000841180008C910000873
:1000100049170008650B00087F2C0008000000004D
:10002000000000000000000000000000BD1F0008EC
:10003000690B000800000000191D0008D12000080D
:100040002F0200082F0200082F0200082F020008CC
:100050002F0200082F0200082F0200082F020008BC
:100060002F0200082F0200082F0200082F020008AC
:100070002F0200082F0200082F0200082F0200089C
:100080002F0200082F0200082F0200082F0200088C
:100090002F0200082F0200082F0200082F0200087C
:1000A0002F0200082F0200082F0200082F0200086C
:1000B0005D25000879260008912600082F02000817
:1000C0002F0200082F0200082F0200082F0200084C
:1000D0002F0200082F0200082F020008992A0008AA
:1000E0006D0B00082F0200082F0200082F020008E5
:1000F0002F0200082F0200082F0200082F0200081C
:100100002F0200082F0200082F0200082F0200080B
:100110002F0200082F0200082F0200082F020008FB
:100120002F0200082F0200082F0200082F020008EB
:1001300000F002F800F05FF80AA090E8000C82449A
:100140008344AAF10107DA4501D100F054F8AFF277
:10015000090EBAE80F0013F0010F18BFFB1A43F0A5
:1001600001031847A4850000C48500000A444FF02D
:10017000000C10F8013B13F0070408BF10F8014B06
:100180001D1108BF10F8015B641E05D010F8016B4B
:10019000641E01F8016BF9D113F0080F1EBF10F8AF
:1001A000014BAD1C0C1B09D16D1E58BF01F801CBD2
:1001B000FAD505E014F8016B01F8016B6D1EF9D555
:1001C0009142D6D37047000000230024002500266A
:1001D000103A28BF78C1FBD8520728BF30C148BFAA
:1001E0000B607047642900F06780002070471FB5DE
:1001F0001FBD10B510BD00F0CBFA1146FFF7F7FF99
:1002000004F006FB00F0E9FA03B4FFF7F2FF03BCC9
:1002100002F059FE0948804709480047FEE7FEE71B
:10022000FEE7FEE7FEE7FEE7FEE7FEE7FEE7FEE7A6
:1002300004480549054A064B70470000D5200008D0
:1002400031010008E80E0020E8140020E81000202A
:10025000E8100020704710B54C1084EA530404D510
:100260004042C1F1000138BF491E1B4204D5524231
:10027000C3F1000338BF5B1E00F02EF914F0804F6D
:1002800004D04042C1F1000138BF491E14F0004FB4
:1002900004D05242C3F1000338BF5B1E10BD000002
:1002A0000FB4044910B503AA029800F009FA10BC73
:1002B0005DF814FB0C0E00202DE9F04106460024E9
:1002C00010687529314616A510D0AFF300800028BC
:1002D00002DA404213A507E031688A0701D512A56A
:1002E00002E0490704D511A5012401E0AFF3008025
:1002F00000210A2206F1240709E0B0FBF2FCB0FB62
:10030000F2F302FB1C00303078541846491C0028D8
:10031000F3D123462A463046BDE8F04100F05EB9ED
:10032000000000002D0000002B0000002000000055
:100330002DE9F05F894604464FF0000ADFF824B14A
:10034000FB44C0F820A02046E168884700287DD003
:10035000252806D0D4E901219047206A401C20625C
:10036000F1E700255F462046E168884720280646D9
:1003700007DB312E05D2B81910F8200C08B105435F
:10038000F1E7A80701D525F00405C4F81CA0002753
:10039000C4F818A02A2E09D0304602F08DFD38B3DB
:1003A00004EB8708303EC8F8186019E059F8041BC0
:1003B000204604EB87029161E1688847012F0646D9
:1003C00018D1E069002820DA25F020051DE0D8F8D2
:1003D000180000EB800006EB40003038C8F8180029
:1003E0002046E1688847064602F066FD0028EED107
:1003F000012F0AD02E2E08D12046E16888477F1CA5
:100400000646022F45F02005C4DBA069002803DA68
:10041000404245F00105A061E80701D025F0100534
:10042000A6B1A6F14100192802D8203645F400658E
:100430004A463146204625604D46FFF7D3FE60B15F
:10044000012807D0ED1D25F0070000E007E000F1CE
:10045000080978E705F1040975E730467AE7206A6C
:10046000BDE8F09F7082000040EA010310B59B07D1
:100470000FD1042A0DD310C808C9121F9C42F8D00E
:1004800020BA19BA884201D9012010BD4FF0FF30BF
:1004900010BD1AB1D30703D0521C07E0002010BDD5
:1004A00010F8013B11F8014B1B1B07D110F8013B61
:1004B00011F8014B1B1B01D1921EF1D1184610BD42
:1004C00002F0FF0343EA032242EA024200F00CB9C1
:1004D000704770477047704753EA020C00F069801C
:1004E0002DE9F04B4FF00006002B1FBFB3FA83F548
:1004F00003FA05F424FA05F65E4012BF1643B2FA79
:1005000082F502FA05F4C5F120051EBF22FA05FCAA
:1005100044EA0C04203556EA044C4FEA144418BF50
:10052000641C4FF000084FF00009904271EB030C7F
:1005300039D3002919BFB1FA81F701FA07F6B0FAE9
:1005400080F700FA07F6C7F120071EBF20FA07FC64
:1005500046EA0C062037B6FBF4FCA7EB0507103F74
:1005600007F01F0BCBF120060CFA0BFB2CFA06F65A
:1005700044BFB3460026202FA4BF5E464FF0000BB9
:100580005BEA060C08BF4FF0010B19EB0B09ABFB44
:10059000027C48EB0608C01B06FB02CC0BFB03CC1D
:1005A00071EB0C01C1E70B46024641464846BDE8E7
:1005B000F08B13B54FF000004FF00001AFF3008057
:1005C000BDE81C40704710B500F0AEF8006810BDE3
:1005D00010B5044600F0A8F8046010BD2DE9F047FE
:1005E0000D4699469246044600F1240801688806A3
:1005F00004D5E06921F01001216000E00120A8424B
:1006000001DD471B00E00027A1697A1902EB090010
:10061000081AA0612078C00602D42046AFF30080FB
:10062000002608E0D4E901211AF806009047206A64
:10063000401C761C20624E45F4DB2078C0060AD5AB
:100640002046AFF3008006E0D4E901213020904736
:10065000206A401C2062381EA7F10107F4DC07E085
:10066000D4E9012118F805009047206A401C206257
:10067000281EA5F10105F3DC2046AFF300802078A9
:10068000000602D50220BDE8F0870120FBE700004C
:1006900001694A1C02610878704700B58FB0CDE946
:1006A00001310021059105497944CDE90310114636
:1006B0006846FFF73DFE0FB000BD0000E5FFFFFFFD
:1006C000074B70B50D467B44FFF7E7FF044628460D
:1006D00000F02EF810B14FF0FF3070BD204670BD15
:1006E0007F3A00004FF000020429C0F0128010F0A1
:1006F000030C00F02380CCF1040CBCF1020F18BFF6
:1007000000F8012BA8BF20F8022BA1EB0C0100F090
:1007100015B85FEAC17C24BF00F8012B00F8012B5B
:1007200048BF00F8012B704700487047880E002032
:10073000007B00F0800070474FF0000200B51346C8
:1007400094469646203922BFA0E80C50A0E80C50F1
:10075000B1F12001BFF4F7AF090728BFA0E80C50A2
:1007600048BF0CC05DF804EB890028BF40F8042B9B
:1007700008BF704748BF20F8022B11F0804F18BF08
:1007800000F8012B7047000000487047880E0020D9
:100790007546FFF7F9FFAE4605006946534620F05F
:1007A0000700854618B020B5FFF742FDBDE82040A0
:1007B0004FF000064FF000074FF000084FF0000B1D
:1007C00021F00701AC46ACE8C009ACE8C009ACE8D0
:1007D000C009ACE8C0098D46704710B50446AFF3B8
:1007E00000802046BDE81040FFF70EBD21B18268B1
:1007F00042F00102826003E0826822F0010282601E
:100800007047000010B504461248844208D1012107
:10081000401501F023FB0021601501F01FFB17E0DC
:100820000D48844208D10121001501F017FB002179
:10083000201501F013FB0BE00848844208D1012188
:10084000C80301F00BFB00214FF4004001F006FB50
:1008500010BD00000024014000280140003C014080
:10086000014600208A6802F004020AB1012000E07B
:10087000002070470146C86C80B2704702460020D5
:1008800013680B400BB1012000E0002070470146C7
:1008900000208A6802F008020AB1012000E000206E
:1008A0007047000030B502460020002350680F4C0E
:1008B00020400D790C6844EA05242043506090687C
:1008C0000B4C2040D1E902542C434D7944EA4504B5
:1008D00020439060D06A20F470000C7C641EE4B267
:1008E000234340EA0350D06230BD0000FFFEF0FF1A
:1008F000FDF7F1FFF0B504460D4600200021092D5B
:1009000011DDE068A5F10A0606EB4607072606FAA0
:1009100007F18843A5F10A0606EB460603FA06F13D
:100920000843E0600CE0206905EB4507072606FA5E
:1009300007F1884305EB450603FA06F108432061F9
:10094000072A0FDA606B561E06EB86071F2606FA8B
:1009500007F18843561E06EB860605FA06F10843A2
:10096000606322E00D2A0FDA206BD61F06EB8607A4
:100970001F2606FA07F18843D61F06EB860605FAFE
:1009800006F10843206310E0E06AA2F10D0606EBD1
:1009900086071F2606FA07F18843A2F10D0606EB2B
:1009A000860605FA06F10843E062F0BD816841F071
:1009B00008018160704721B1826842F4A002826020
:1009C00003E0826822F4A00282607047816841F0EF
:1009D000040181607047000000B587B001214FF429
:1009E000017001F02BFA2020ADF8180000208DF8DE
:1009F0001B0006A91E4800F08FFA4FF4004001F0DA
:100A000001FA1C48FFF7FEFE002001908DF8090056
:100A100004904FF46020039001208DF81400002012
:100A20008DF8080001A91348FFF73CFF0121114888
:100A3000FFF7DCFE0723012205210E48FFF75AFFCE
:100A40000C48FFF7B3FF00BF0A48FFF720FF00285C
:100A5000FAD10848FFF7BAFF00BF0648FFF700FFCA
:100A60000028FAD101210348FFF7A5FF07B000BD18
:100A700000080140002401402DE9F04101210F4808
:100A8000FFF799FF00BF02210C48FFF7F7FE00288F
:100A9000F9D00A48FFF7EEFEC0F30714204605F030
:100AA00026FC05464FF06632054B05F033FC074641
:100AB0000022044B05F096FABDE8F08100240140C5
:100AC00066660A4000E06F402DE9F84F05460E4685
:100AD0004FF08141284605F023FF00901D48009902
:100AE000006805F01DFF1B4908601B491948006894
:100AF00006F0E2F903D218481649086008E01749E1
:100B00001448006806F0D8F802D214481149086069
:100B10001349086A314606F003F981461049C8694D
:100B20000C49096806F0FCF882460D49886900996D
:100B300006F0F6F88346514605F0F2FE8046494637
:100B400005F0EEFE074606F04FF804462046BDE8E5
:100B5000F88F0000E40D00200000E1450000E1C531
:100B6000340E002000BFFEE77047000010B5574864
:100B7000006800287DD14FF4805000F0C1F854483F
:100B80000068401C5249086008460068142190FB28
:100B9000F1F201FB120040B94E480068C0434E49D3
:100BA000C1F89C0100204A4908604C4A111F081FE7
:100BB00003F028FF60B9494A0832911E881E00F0F0
:100BC00043FC464A0E32911E881E00F065FC01E08F
:100BD000002010BD41494439C86B414906F06CF80A
:100BE00057D23E494439C86B3E4906F065F950D2A8
:100BF0003D48006800284CD1032001F0C3F9404271
:100C0000364944390861042001F0BCF933494439BC
:100C10004861B1F9500006F023F804462F494439E1
:100C2000C86B2146FFF750FF304908602B4A443A11
:100C30005169106902F026F82D4908602B480068B8
:100C400009680844254944398860284800682849CB
:100C50000968084421494439C860B1F94C0005F0DD
:100C6000FFFF04461D48443843690269C16B2046B2
:100C700000E028E001F052F830B9184A443AD1684F
:100C8000906800F099FD1EE00021084600F094FDF8
:100C900019E001200F491C3908600F49C1F884018F
:100CA0000C49103908600C49C1F888010021084638
:100CB00000F082FD00200F4908600F4908600F49CD
:100CC000086009490860012083E700003081214263
:100CD000CC0D00209C01224200002242780E002010
:100CE0000000A0420000A0C2D80D0020C80D0020C6
:100CF000C00D0020D00D0020DC0D0020E40D0020F0
:100D00000149086070470000140401400021234994
:100D10008279002A3AD00A46126803689A430B4641
:100D20001A600A1D126803689A430B1D1A60027943
:100D300011440A6803681A430A60184A08321268A4
:100D400003689A43154B08331A601A1D126803682A
:100D50009A43124B0C331A604279102A0ED11A1F93
:100D6000126803681A430D4B08331A601A1D126883
:100D700003681A43094B0C331A600DE007494279A6
:100D800011440A6803681A430A6005E002791144B5
:100D90000A6803689A430A60704700000004014033
:100DA00000B587B00121022001F038F801210420AC
:100DB00001F044F8C020ADF8000004208DF80300D5
:100DC00069461C4800F0A8F804A801F05BFE00206A
:100DD000ADF810004FF6FF70ADF814000020ADF82C
:100DE0001600ADF8120004A9134801F0F9FD002324
:100DF0001A460321104801F084FC01A801F00AFD05
:100E00000A20ADF80C0001A90B4801F0ADFC01214E
:100E1000094801F055FC01221146074801F003FD85
:100E20000021054801F0AEFD0121034801F04EFC10
:100E300007B000BD000801400004004000B587B0C5
:100E40000121042000F0EAFF0121082000F0F6FF54
:100E5000C020ADF8000004208DF8030069461C484E
:100E600000F05AF804A801F00DFE0020ADF81000C3
:100E70004FF6FF70ADF814000020ADF81600ADF885
:100E8000120004A9134801F0ABFD00231A46032108
:100E9000104801F036FC01A801F0BCFC0A20ADF8B6
:100EA0000C0001A90B4801F05FFC0121094801F089
:100EB00007FC01221146074801F0B5FC0021054856
:100EC00001F060FD0121034801F000FC07B000BD06
:100ED000000C01400008004030B500228B071C0FB9
:100EE0000F2303FA04F20B4B8C1053F82430934376
:100EF000084C8D1044F8253023468C1053F82430CC
:100F00008C07240F00FA04F42343024C8D1044F89C
:100F1000253030BD080001402DE9F0410246002592
:100F20000026002000230024002791F803C00CF0C5
:100F30000F0591F803C00CF0100CBCF1000F03D0AA
:100F400091F802C04CEA050591F800C0BCF1000F11
:100F500031D0146800202BE04FF0010C0CFA00F3A4
:100F6000B1F800C00CEA03069E4220D183004FF086
:100F70000F0C0CFA03F7BC4305FA03FC4CEA04041B
:100F800091F803C0BCF1280F06D14FF0010C0CFA08
:100F900000FCC2F814C00AE091F803C0BCF1480F8D
:100FA00005D14FF0010C0CFA00FCC2F810C0401C37
:100FB0000828D1D31460B1F800C0BCF1FF0F34DDB4
:100FC000546800202EE000F1080C4FF0010808FAE8
:100FD0000CF3B1F800C00CEA03069E4221D1830055
:100FE0004FF00F0C0CFA03F7BC4305FA03FC4CEA74
:100FF000040491F803C0BCF1280F05D100F1080CDE
:1010000008FA0CF8C2F8148091F803C0BCF1480F3C
:1010100007D100F1080C4FF0010808FA0CF8C2F8EB
:101020001080401C0828CED35460BDE8F081000039
:10103000F0B50A46002300240021002500F00046F8
:10104000B6F1004F02D11D4EF16901E01B4E7168EF
:10105000C0F3034583B200F44016B6F5401F08D133
:1010600021F07061154E766826F07066134F7E6031
:1010700012E000F48016B6F5801F06D1032606FAAA
:1010800005F4A14341F0706106E0460D360103FA14
:1010900006F6B14341F0706122B1460D360103FA04
:1010A00006F6314300F00046B6F1004F02D1034E80
:1010B000F16101E0014E7160F0BD000000000140EF
:1010C000416170470161704700BFFEE710B5002025
:1010D0000F4908600F48006820F470200D4908602F
:1010E0000846006840F44030086000200A49C1F812
:1010F0009001052002F0C0FA012005490860052092
:1011000002F0BAFA00200449C1F8940110BD0000B1
:1011100094012242001001400000224208B5012142
:10112000102000F08BFE3020ADF8000010208DF86C
:10113000030003208DF8020069460548FFF7ECFE26
:101140000120044908600449C1F8900108BD00006D
:1011500000100140940122420000224210B50020FC
:101160000F4908600F48006820F470200D4908609E
:101170000846006840F44030086001200A49C1F880
:101180009001052002F078FA012005490860052049
:1011900002F072FA00200449C1F8940110BD000069
:1011A00094012242001001400000224270B5054621
:1011B00000241748006820F470201549086008468C
:1011C000006840F400200860002616E00020114965
:1011D0000860052002F050FA01200F49C1F894017F
:1011E0006006040E0B488438006808B1601CC4B265
:1011F000032002F041FA701CC6B2082EE6DB15B9D6
:10120000FFF7ACFF01E0FFF761FF204670BD000073
:1012100000100140940122420000224270B50446B1
:101220001548006820F470201349086008460068DB
:1012300040F440300860002010490860002517E0A5
:10124000E0090E49091F08606006040E052002F03F
:1012500013FA01200A49C1F89401052002F00CFAA2
:10126000002006490860022002F006FA681CC5B298
:10127000082DE5DB70BD0000001001409401224202
:101280000000224210B50F48006820F470200D497C
:1012900008600846006840F44030086001200A49B0
:1012A00008600A49C1F894010A2002F0E5F900201B
:1012B000054908600A2002F0DFF900200349C1F85F
:1012C000940110BD00100140900122420000224212
:1012D00010B50F48006820F470200D4908600846DA
:1012E000006840F44030086000200A4908600A495C
:1012F000C1F890010A2002F0BFF9012005490860F9
:101300000549C1F890010A2002F0B6F910BD0000AD
:1013100000100140940122420000224210B5002436
:101320001448006820F470201249086008460068DC
:1013300040F40020086001200F49086002F09CF989
:1013400001200E49C1F8940102F096F907E0601CF3
:10135000C4B2FA2C03DDFFF7BBFF012010BD064825
:10136000803800680028F2D10349091D086000BFD9
:10137000F4E70000001001409001224200002242E8
:1013800008B50121112000F059FD4FF40250ADF8CD
:10139000000010208DF8030003208DF8020069463C
:1013A0000A48FFF7B9FD4FF402510848FFF78AFEDB
:1013B000012000F0ABFC002000F0CAFD0120044930
:1013C000086000200349C1F89C0108BD00100140DD
:1013D000B4012242000022421FB50121084600F05C
:1013E0002DFD0121082000F029FD4FF48050ADF8BB
:1013F0000C0048208DF80F0003A91248FFF78CFD60
:101400000C210120FFF768FD4FF48050019000206F
:101410008DF808000C208DF8090001208DF80A00D5
:1014200001A8FFF773FC28208DF8000003208DF839
:1014300001008DF8020001208DF80300684600F0DD
:1014400001FA1FBD000C01402DE9FC4104460D4688
:1014500016466B4606223B21682000F09FF807469F
:10146000BFB99DF801009DF8001040EA012000B2CC
:1014700020809DF803009DF8021040EA012000B290
:1014800028809DF805009DF8041040EA012000B274
:1014900030803846BDE8FC812DE9FC4104460D460C
:1014A00016466B4606224321682000F077F807466F
:1014B000BFB99DF801009DF8001040EA012000B27C
:1014C00020809DF803009DF8021040EA012000B240
:1014D00028809DF805009DF8041040EA012000B224
:1014E00030803846BDE8FC8110B5FFF717FE80213B
:1014F0006B2000F0D7F8642002F098F800216B20F0
:1015000000F0D0F8032000F08BF8002000F080F805
:10151000642000F0AAF800216A2000F0C3F8FF213F
:10152000232000F0BFF89C21372000F0BBF80121F8
:10153000382000F0B7F8752000F013F80446682C46
:101540000BD101216B2000F0ADF800216C2000F0E0
:10155000A9F8322000F089F801E0012010BD002038
:10156000FCE770B50446FFF78DFED020FFF756FE6E
:10157000FFF7D4FE2046FFF751FEFFF7CFFEFFF73F
:1015800081FED120FFF74AFEFFF7C8FE0020FFF7DB
:101590000DFE0546FFF79CFE284670BD2DE9F04183
:1015A00006460F4614461D46FFF76CFE002141EA31
:1015B0004601C8B2FFF732FEFFF7B0FE20B1FFF7D9
:1015C00087FE0120BDE8F0813846FFF727FEFFF7D0
:1015D000A5FEFFF757FE012101EB4601C8B2FFF758
:1015E0001DFEFFF79BFE0DE0012C04D10020FFF74C
:1015F000DDFD287003E00120FFF7D8FD2870601E94
:10160000C4B26D1C002CEFD1FFF762FE0020D9E7B9
:1016100010B50446E006010E1C2000F043F810BD92
:1016200010B50446E006010E1B2000F03BF810BD8B
:1016300070B504460025BC2C01DB012510E0622CAE
:1016400001DB02250CE02A2C01DB032508E0142C29
:1016500001DB042504E00A2C01DB052500E006255A
:1016600029461A2000F01EF870BD70B50446B4F586
:101670007A7F01DD4FF47A74042C00DA04244FF4ED
:101680007A7090FBF4F0401EC5B22946192000F094
:1016900009F80546264604EBD671C1F34F00FFF763
:1016A000C7FF70BD70B505460C46FFF7EBFDD020B7
:1016B000FFF7B4FDFFF732FE18B1FFF709FE012076
:1016C00070BD2846FFF7AAFDFFF728FE2046FFF76A
:1016D000A5FDFFF723FE18B1FFF7FAFD0120EFE7A4
:1016E000FFF7F6FD0020EBE72DE9F04105460E4639
:1016F00017469846FFF7C6FD002141EA4501C8B2EA
:10170000FFF78CFDFFF70AFE20B1FFF7E1FD012096
:10171000BDE8F0813046FFF781FDFFF7FFFD0024B3
:101720000CE018F80400FFF779FDFFF7F7FD18B19A
:10173000FFF7CEFD0120EBE7601CC4B2BC42F0DB3A
:10174000FFF7C6FD0020E3E700BFFEE710B502206B
:101750001549087008460078487008460078887077
:101760000720C8700020086148618860C86008715F
:101770000E4888610020C8614FF03F4008620C4865
:1017800048620C4888620020C86208634863886326
:10179000002141F61F4000F003FFFFF701FBFFF7B8
:1017A0004DFBFFF719FE10BD340E0020000052C3A0
:1017B000008002C3D7A330BF70B504460D46002C8D
:1017C00008DA00201B49086001201B49C1F8840188
:1017D000644206E001201749086000201649C1F85C
:1017E0008401B4F5E15F01DD41F65834002D0ADAD9
:1017F000002010490C31086001200F49C1F8880110
:10180000C5F1140507E001200A490C3108600020E9
:101810000949C1F88801B5F5E15F01DD41F65835A8
:10182000A1B2064801F0A9F8A9B2044801F0A7F84E
:1018300070BD00008001224200002242002C0140C5
:101840007047000070B5002100230F22C47804B354
:10185000154C246804F4E064C4F5E064210AC1F185
:101860000403CA40447804FA03F184781440214305
:1018700009010E4C0678A155047804F01F050124D7
:10188000AC4005786D11AD0005F1E025C5F80041CB
:1018900009E0047804F01F050124AC40044D0678EB
:1018A000761145F8264070BD0CED00E000E400E044
:1018B00080E100E070B5002419E004F1B001C8B285
:1018C000002100F0E7F90021084600F0E3F90021CB
:1018D000102000F0DFF9002505E00121002000F0D4
:1018E000D9F9681CC5B2802DF7DB601CC4B2082C86
:1018F000E3DB70BD08B50121092000F09FFA01214A
:101900005048FFF795FB01214F48FFF791FB4FF43B
:101910004E70ADF8000010208DF8030003208DF804
:10192000020069464948FFF7F7FA20214748FFF7C8
:10193000C9FB642001F07AFE20214448FFF7C0FB78
:10194000642001F073FE20214048FFF7BBFB00211B
:10195000AE2000F09FF90021084600F09BF900211D
:10196000102000F097F90021402000F093F90021A9
:10197000812000F08FF90021CF2000F08BF90021A9
:10198000A12000F087F90021C82000F083F9002190
:10199000A62000F07FF90021A82000F07BF90021AB
:1019A0003F2000F077F90021D32000F073F90021E7
:1019B000084600F06FF90021D52000F06BF90021F6
:1019C000802000F067F90021D92000F063F90021A0
:1019D000F12000F05FF90021DA2000F05BF900212E
:1019E000122000F057F90021DB2000F053F900210C
:1019F000402000F04FF90021202000F04BF9002199
:101A0000022000F047F900218D2000F043F9002169
:101A1000142000F03FF90021A42000F03BF9002140
:101A2000A62000F037F90021AF2000F033F90021A3
:101A3000AF2000F02FF9FFF73DFF0021084600F02E
:101A40000DF808BD0004300000023000000C014019
:101A500001490870704700002400002070B504465A
:101A60000D4605F1B001C8B2002100F013F91021B4
:101A700041EA1410002100F00DF904F00F0141F0CB
:101A80000100002100F006F970BD00002DE9F041D1
:101A900007460E46904600250024A8F12000C5B256
:101AA0007F2F02DD0027B01CC6B242480078102804
:101AB00024D131463846FFF7D1FF002408E004EB7B
:101AC00005113D4A505C012100F0E4F8601CC4B2ED
:101AD000082CF4DB701CC1B23846FFF7BFFF0024AE
:101AE00009E004EB05110831334A505C012100F094
:101AF000D1F8601CC4B2082CF3DB59E02D48007803
:101B00000C2814D1701CC1B23846FFF7A7FF00247F
:101B10000AE005EB4501294A02EB4101085D01217C
:101B200000F0B8F8601CC4B2062CF2DB40E021489B
:101B3000007818283CD131463846FFF78FFF002443
:101B40000AE005EBC50104EB81011D4A505C01214F
:101B500000F0A0F8601CC4B20C2CF2DB701CC1B207
:101B60003846FFF77BFF00240BE005EBC50104EBD3
:101B700081010C31124A505C012100F08BF8601C8D
:101B8000C4B20C2CF1DBB01CC1B23846FFF766FFC3
:101B900000240BE005EBC50104EB81011831084A74
:101BA000505C012100F076F8601CC4B20C2CF1DB13
:101BB000BDE8F081240000201E730008F6700008C4
:101BC000250000202DE9FF5F074691461D460E9E29
:101BD0004FF0000A002433E0281B401EC1B20A2047
:101BE00004F009F8B9FBF0F00A21B0FBF1F201FBB7
:101BF0001208BAF1000F13D1681EA04210DDB8F12F
:101C0000000F0BD1B34606EBDB71491001FB0471E9
:101C1000C8B220220199FFF739FF0FE04FF0010A07
:101C2000B34606EBDB71491001FB0471C8B208F141
:101C30003001CAB20199FFF729FF00BF601CC4B28E
:101C4000AC42C9DBBDE8FF9F2DE9F04104460F46D9
:101C50001546002616E0AA5D39462046FFF716FF16
:101C60000B480078182803D104F10C00C4B202E03C
:101C700004F10800C4B2782C02DD0024B81CC7B2FD
:101C8000701CC6B2A85D0028E5D1BDE8F081000057
:101C90002400002070B504460E4626B110211A48D3
:101CA000FFF710FA03E010211748FFF709FA08219F
:101CB0001548FFF705FA00251BE04FF400711248A4
:101CC000FFF7FEF904F0800028B14FF480710E4850
:101CD000FFF7F8F904E04FF480710B48FFF7F0F9D3
:101CE0004FF400710848FFF7EDF96006040E681C18
:101CF000C5B2082DE1DB08210348FFF7E3F9102105
:101D00000148FFF7DFF970BD000C0140014908628E
:101D10007047000000000E42704700002DE9F041BE
:101D200007460E4614461D462F480088E0B9204657
:101D300003F05AFF0246284603F056FF10441E28BF
:101D400005DA2A480088401C2849088002E0002063
:101D500026490880254800880A2805DD01202249F7
:101D600008800020214908801F48008801281DD1D3
:101D70001F480088401C80B21D490880C82803DD28
:101D800000200880184908801A49384605F094F860
:101D90000CD21949304605F08FF807D21749304662
:101DA00004F08AFF02D202200F4908800E48008802
:101DB000022816D112480088401C80B210490880C1
:101DC000642803DD0020088007490880601903F0BB
:101DD0000BFFC82805DD0020034908800120BDE86D
:101DE000F0810020FBE70000F80D0020FA0D002034
:101DF000FC0D00200020CB46000088C10000B84147
:101E0000FE0D002001460020034A506820F44040A7
:101E100008435060704700000010024029B1064A94
:101E2000D2690243044BDA6104E0034AD269824377
:101E3000014BDA61704700000010024029B1064AE8
:101E400092690243044B9A6104E0034A9269824317
:101E5000014B9A61704700000010024029B1064A08
:101E6000D2680243044BDA6004E0034AD26882433A
:101E7000014BDA60704700000010024030B50021CD
:101E80000022002400232D4D6D6805F00C0121B1C6
:101E9000042905D0082923D105E0294D056022E059
:101EA000274D05601FE0254D6D6805F47012234D28
:101EB0006D6805F48034022505EB92421CB9214D72
:101EC000554305600BE01D4D6D6805F400351DB1EF
:101ED0001C4D5543056002E0194D5543056002E075
:101EE000174D056000BF00BF144D6D6805F0F0018F
:101EF0000909154D6B5C0568DD4045600F4D6D6847
:101F000005F4E061090A104D6B5C4568DD408560B1
:101F10000A4D6D6805F46051C90A0B4D6B5C45684C
:101F2000DD40C560054D6D6805F44041890B074DE6
:101F30006B5CC568B5FBF3F5056130BD0010024070
:101F400000127A0000093D00100E0020200E002033
:101F500000210B4A11700A4A203A82F82010012809
:101F600002D0042808D103E00121054A117004E0E1
:101F70000521034A117000E000BF00BF7047000058
:101F8000201002400146032902D004290ED106E0A8
:101F9000084A128810B20022064B1A8008E0064A4E
:101FA000128810B20022044B1A8001E0002000BF0A
:101FB00000BF70472404004024080040704710B55B
:101FC00000F002F810BD00000CB500200190009058
:101FD0003348006840F480303149086000BF304821
:101FE000006800F4003000900198401C01900098B7
:101FF00018B90198B0F5A06FF1D12948006800F434
:10200000003010B10120009001E000200090009805
:10201000012843D12348006840F01000214908609E
:102020000846006820F0030008600846006840F099
:10203000020008601A48406819494860084640682C
:1020400048600846406840F4806048600846406840
:1020500020F47C1048600846406840F4E81048606E
:102060000846006840F08070086000BF0C480068B7
:1020700000F000700028F9D00948406820F0030003
:10208000074948600846406840F00200486000BFC9
:102090000348406800F00C000828F9D10CBD00008E
:1020A0000010024000200240042808D14FF0E02137
:1020B000096941F004014FF0E022116107E04FF09F
:1020C000E021096921F004014FF0E022116170471D
:1020D0007047000010B51348006840F00100114936
:1020E000086008464068104908400E4948600846A4
:1020F00000680E4908400B4908600846006820F453
:10210000802008600846406820F4FE0048604FF4D4
:102110001F008860FFF753FF4FF00060044908601C
:1021200010BD0000001002400000FFF8FFFFF6FEA7
:1021300008ED00E010B501F057FAFFF721F94FF470
:10214000165003F019FEFFF7D5FBFEF745FC50A231
:1021500000210846FFF778FD642001F067FA51A2DC
:1021600002210020FFF770FD642001F05FFA07E014
:10217000642001F05BFA4FA202210020FFF764FD0A
:10218000FFF7B2F90028F3D1C82001F04FFAFFF7AA
:1021900091FB3FA200210846FFF756FD48A202210D
:1021A0000020FFF751FD4FF4967001F03FFA46A270
:1021B00004210020FFF748FD14E0FFF77BFB182007
:1021C000FFF746FC44A200210620FFF73DFD10204A
:1021D000FFF73EFC43A204210020FFF735FD32202B
:1021E00001F024FA02F020FD0028E6D11020FFF7CC
:1021F0002FFCC82001F01AFAFFF75CFB24A2002193
:102200000846FFF721FD2EA202210020FFF71CFD4A
:1022100039A204210020FFF717FD4FF4FA6001F006
:1022200005FAFFF747FB1AA200210846FFF70CFD4D
:1022300023A202210020FFF707FD2FA20421002086
:10224000FFF702FD2EA206210020FFF7FDFCFFF79D
:102250007DFA4FF4FA6001F0E9F9FFF72BFB0CA2CD
:1022600000210846FFF7F0FC15A202210020FFF72D
:10227000EBFC21A204210020FFF7E6FC24A20621AA
:102280000020FFF7E1FC4FF4FA6001F0CFF910BD38
:1022900053797374656D20436F6E6669672E2E2EB9
:1022A000000000003630353020436F6E6669672EBF
:1022B0002E2E000036303530206572726F720000AD
:1022C00036303530204F4B004D505520436F6E66F1
:1022D00069672E2E2E0000004D5055204572726FFA
:1022E00072210000706C65617365207265737461A2
:1022F00072742121000000004D5055204F4B00000A
:102300004D6F746F7220436F6E6669672E2E2E00BC
:102310004D6F746F72204F4B00000000F0B50C46FB
:10232000154600220021068C4FF6FE773E400684BB
:10233000028B018C4FF60C7632407E1C06EA0316A7
:102340002E433243104EB0420ED0104EB0420BD04E
:10235000B0F1804F08D00E4EB04205D00D4EB042C5
:1023600002D00D4EB04206D14FF6FD76314044F01A
:102370000106314305E04FF6F576314044F00106A1
:10238000314302830184F0BD002C01400034014040
:102390000004004000080040000C0040F0B50C466E
:1023A0001546002200210026078C4FF6EF7C07EA35
:1023B0000C070784028B018C4FF6FF7707EA04169F
:1023C00040F6FF473A404FF6FF7707EA03373A43B4
:1023D0004FF6FF7707EA05273A43114FB8420ED070
:1023E000104FB8420BD0B0F1804F08D00E4FB8421A
:1023F00005D00E4FB84202D00D4FB84206D14FF66D
:10240000DF77394046F01007394305E04FF65F7734
:10241000394044F01007394302830184F0BD0000C5
:10242000002C01400034014000040040000800403E
:10243000000C0040F0B50C46154600220021002695
:10244000078C4FF6FF6C07EA0C070784828B018C20
:102450004FF6FF7707EA04264FF60C773A404FF61F
:10246000FF7707EA03172F433A43114FB8420ED0C4
:10247000104FB8420BD0B0F1804F08D00E4FB84289
:1024800005D00E4FB84202D00D4FB84206D14FF6DC
:10249000FF57394046F48077394305E04FF2FF5744
:1024A000394044F48077394382830184F0BD0000D1
:1024B000002C0140003401400004004000080040AE
:1024C000000C0040F0B50C46154600220021002605
:1024D000078C4EF6FF7C07EA0C070784828B018C81
:1024E0004FF6FF7707EA043640F6FF473A404FF6CB
:1024F000FF7707EA05273A434FF6FF7707EA0337E6
:102500003A43114FB8420ED0104FB8420BD0B0F141
:10251000804F08D00E4FB84205D00E4FB84202D0BF
:102520000D4FB84206D14DF6FF77394046F480573B
:10253000394305E047F6FF57394044F480573943A3
:1025400082830184F0BD0000002C01400034014072
:102550000004004000080040000C004010B50121BC
:10256000880700F0EFF898B10121880700F0ABF878
:102570000848008800B20849086100200549088021
:102580000648008800B204494861002003490880D9
:1025900010BD000024040040340E00202408004038
:1025A00030B589B005460C4601210846FFF736FCD8
:1025B00001211520FFF742FC0F20ADF8200010206C
:1025C0008DF8230003208DF8220008A92748FEF784
:1025D000A3FC0121C802FFF731FC01210420FFF711
:1025E0002DFC4FF41060ADF8200018208DF823006A
:1025F00003208DF8220008A91D48FEF78DFCADF8D8
:102600001850ADF814400020ADF81A00ADF81600CF
:1026100005A9184800F0E4F96020ADF80400012095
:10262000ADF806000020ADF80A00ADF80C0001A9D5
:10263000104800F001F901A90E4800F053F90121FA
:102640000C4800F04FF808210A4800F041F9082131
:10265000084800F085F90121064800F025F801211D
:10266000044800F033F809B030BD0000001001400C
:1026700000080140002C01400448008803480088FD
:1026800020F001000149088070470000100400405C
:10269000044800880348008820F0010001490880B0
:1026A000704700001008004021B1028842F080020B
:1026B000028004E002884FF67F731A400280704760
:1026C000CA4302827047CA430282704721B102881E
:1026D00042F00102028004E002884FF6FE731A40C5
:1026E0000280704731B1B0F8442042F40042A0F8B3
:1026F000442005E0B0F84420C2F30E02A0F84420C4
:102700007047F0B50C4615461E46002100220023F6
:102710000189028B038C4FF6F877394021434FF63D
:10272000FC473A4040F201173A434FF6DD773B4011
:102730004FF6FF7707EA06172F433B4301810283D9
:102740000384F0BD30B50246002000230024158A22
:1027500005EA0103958905EA010413B10CB10120D2
:1027600000E0002030BD000070B505460C4624484E
:1027700085420ED0234885420BD0B5F1804F08D05A
:102780002148854205D02148854202D02048854213
:1027900000D100E000BF208850B92389A288618859
:1027A0002846FFF7BBFDE188284600F0EDF825E05C
:1027B000208804280AD12389A28861882846FFF747
:1027C000EDFDE188284600F0E8F817E020880828A9
:1027D0000AD12389A28861882846FFF72BFEE18869
:1027E000284600F0E7F809E02389A2886188284696
:1027F000FFF768FEE188284600F0E5F870BD0000AC
:10280000002C01400034014000040040000800405A
:10281000000C0040002101804180012181800021C5
:10282000C180018170471AB183890B43838102E023
:1028300083898B438381704770B500240022002375
:10284000058C4FF6FE7635400584028C8388048B18
:102850004FF68F752C40B51E2C400D882C43751EED
:102860002A400D892A434D882A43144DA8420BD093
:10287000134DA84208D0134DA84205D0124DA842CE
:1028800002D0124DA84213D14FF6F7752A404D8958
:102890002A434FF6FB752A408D882A434FF6FF6581
:1028A0002B404FF6FF552B408D892B43CD892B4371
:1028B00083800483CD888586028470BD002C01400E
:1028C0000034014000400140004401400048014004
:1028D0000A460021018B4FF6F7731940114301831B
:1028E0007047000070B5002200230024058C4EF6CE
:1028F000FF7635400584038C8488828B48F6FF750B
:102900002A404FF6FF452A400D884FF6FF7606EA2B
:1029100005252A434DF6FF752B400D8906EA05353E
:102920002B434D8806EA05352B430B4DA84202D0B8
:102930000A4DA84208D14BF6FF752C408D894FF601
:10294000FF7606EA85152C4384808283CD88A0F823
:102950004050038470BD0000002C01400034014051
:102960000A460021818B4FF2FF7319404FF6FF7327
:1029700003EA022319438183704781867047A0F8D8
:102980004010704781847047028B4FF6F3731A40F2
:102990000283028B0A4302837047028B4FF2FF339C
:1029A0001A400283028B4FF6FF7303EA01231A4396
:1029B00002837047828B4FF6F3731A408283828BB7
:1029C0000A4382837047828B4FF2FF331A4082831F
:1029D000828B4FF6FF7303EA01231A438283704709
:1029E000002202881D4B98420ED01D4B98420BD0FE
:1029F000B0F1804F08D01B4B984205D01A4B98423B
:102A000002D01A4B984204D14FF68F731A404B886C
:102A10001A43174B984207D0164B984204D04FF6F2
:102A2000FF431A40CB881A4302808B8883850B882A
:102A300003850A4B98420BD0094B984208D00E4BA5
:102A4000984205D00D4B984202D00D4B984201D1CF
:102A50000B7A03860123838270470000002C01401B
:102A6000003401400004004000080040000C004019
:102A700000100040001400400040014000440140AC
:102A8000004801404FF6FF71818000210180C18024
:102A9000418001727047000010B540F225510F4887
:102AA00000F02CF8C8B10D4800F0E4F8C4B2412C95
:102AB00005D100200A490870487088700DE0452C47
:102AC00005D10120064908704870887005E0022091
:102AD0000349087000204870887010BD004800400D
:102AE000340E002021B1828942F40052828104E038
:102AF00082894DF6FF731A408281704770B5024695
:102B0000002400230025002040F66A16B14200D1BF
:102B100000BFC1F3421501F01F03012606FA03F3BB
:102B2000012D02D19689334006E0022D02D1168A8A
:102B3000334001E0968A33400C12012606FA04F471
:102B40001688344013B10CB1012000E0002070BDA4
:102B5000F0B50346002400260025002040F66A1741
:102B6000B94200D100BF1846C1F3421401F01F065C
:102B7000012707FA06F5012C01D10C3004E0022CE4
:102B800001D1103000E014301AB107682F430760FC
:102B900002E00768AF430760F0BD00002DE9F04791
:102BA00086B005460E460024A24600BFA146002777
:102BB000B08900B100BF2F462C8A4CF6FF7004404C
:102BC000F08804432C82AC894EF6F3100440B088A0
:102BD00031890843718908430443AC81AC8A4FF6BC
:102BE000FF400440B0890443AC8201A8FFF746F9D6
:102BF0001F48874202D1DDF810A001E0DDF80CA0EB
:102C0000A88900F4004040B10AEBCA0000EB0A10AA
:102C100031684900B0FBF1F807E00AEBCA0000EBAD
:102C20000A1031688900B0FBF1F86420B8FBF0F0BD
:102C300004012009642101FB1089A88900F40040E7
:102C400040B1322000EBC900B0FBF1F000F007000A
:102C5000044308E0322000EB09106421B0FBF1F0DE
:102C600000F00F0004432C8106B0BDE8F08700009F
:102C70000038014001468888C0F30800704700BF53
:102C8000FEE700002DE9FC5F0446894641480078D4
:102C900030B94148006880F00040404908600BE0CE
:102CA0003C480078012804D13B4800683B49086053
:102CB00002E000203949086004EB0901084603F0EE
:102CC000CFFF374908603748006803F0FDFD07462D
:102CD0004FF06632344B03F01DFB054603F0A0F8BD
:102CE000304908602E48006803F0EEFD05464FF0BD
:102CF00033322E4B03F00EFB074688462948006806
:102D000003F0E2FD82463A46434603F0BBF8CDE9C4
:102D1000000103F085F8234908600846016824484B
:102D2000006803F0FDFD224908601C480168204846
:102D3000006804F0F3F81E4908601E491C4800684A
:102D400004F0BAF803D21B481949086008E01A4990
:102D50001748006803F0B0FF02D217481449086012
:102D60000C48816A1248006803F0DAFF05460948FA
:102D7000416A0C48006803F0D3FF0646294603F079
:102D8000CFFD0E4908600846006803F02DFFBDE83E
:102D9000FC9F0000340E0020E00D0020F40D002008
:102DA000EC0D0020F00D00206666E63F3333D33F84
:102DB000DC0D00200000E1450000E1C5E80D002029
:102DC000490050EAC12018BF04204A0D18BF40F046
:102DD000010040F2FF72B2EB515F08BF40F0020009
:102DE000012808BF052070472DE9F0414F1E00EB78
:102DF000C7010446D1E9000115461E4637F0060218
:102E00000DD02A46334603F085FA7F1E04EBC70334
:102E1000D3E9002303F036F837F00602F1D1022F90
:102E200025D0042F13D0062F18BFBDE8F0812A4605
:102E3000334603F06FFAD4E90A2303F023F82A4655
:102E4000334603F067FAD4E9082303F01BF82A4657
:102E5000334603F05FFAD4E9062303F013F82A4659
:102E6000334603F057FAD4E9042303F00BF82A465B
:102E7000334603F04FFAD4E9022303F003F82A465D
:102E8000334603F047FAD4E90023BDE8F04102F0ED
:102E9000F9BF012204F0E9B802F0F4BF00221346A2
:102EA0001046114603F09EB8024A0020110704F0B4
:102EB000DCB8000001FDFFFF30380A2801D20120F4
:102EC00070470020704700BF704700002DE9FE4F9B
:102ED00006460F460025684601F044F9002442E00A
:102EE00056F8240057F82410A0EB010ABAF1000F9D
:102EF00001DB514601E0CAF10001084603F0B0FED3
:102F000083464FF08F4103F079FD80465DF8240041
:102F1000002103F035FE16D05DF82410404603F082
:102F20006DFD82464FF07E5103F0F8FF814629F097
:102F3000004A0F48416A504603F0BEFF12D20120FA
:102F4000A04005430EE00A48C169404603F0B4FEC4
:102F500005D30748016A404603F0AEFF02D20120C4
:102F6000A0400543641C032CBADB2846BDE8FE8F55
:102F70008C8500082DE9F04D8D4F21F0004A86B078
:102F800005460C46BA452ADBAAEB070028430AD0BF
:102F90008848824501DC1AD1CDB106B02846BDE88B
:102FA000F04DFFF776BF844A844B284603F0B2F910
:102FB00007460E46824A834B2846214603F0AAF96B
:102FC00006B03A463346BDE8F04D02F05BBF012043
:102FD000FDF7FEFA06B0BDE8F04DFFF75FBF7A4897
:102FE000824542DABAF1795F0BDA2846FFF7E8FE4C
:102FF000042808BFFFF758FF284606B02146BDE861
:10300000F08D2A460B46104603F084F983460246AB
:103010006E480E460B4606217844FFF7E5FE5A46F9
:10302000334603F077F9804669488A465A46334664
:1030300004217844FFF7D8FE5A46334603F06AF974
:1030400000223B4602F01EFF02460B464046514618
:1030500002F0C8FF2A46234603F05CF906B02A4670
:103060002346BDE8F04D02F00DBF284624F0004194
:1030700000223D463B4603F04BFA4FF0FF3203F08F
:10308000F4FF0646024653480F460B460621784495
:10309000FFF7AAFE32463B4603F03CF9CDE90001BA
:1030A0004D4832463B4604217844FFF79DFE3246A8
:1030B0003B4603F02FF900222B4602F0E3FE834645
:1030C00002913046394602F031FE804643480D46B3
:1030D000504517DCDDE900015A46029B02F082FFF1
:1030E00042462B4603F016F942462B4602F0CAFE32
:1030F000012203F0BAFF304A304B03F0FBFA304AAA
:10310000304B4CE04FF0000A52460B46404602F06E
:10311000B9FECDE9031052462B461046194603F07E
:10312000F9F832463B4603F0F3F9DDE9033202F0E9
:1031300059FF06460F46DDE900015A46029B02F0A0
:1031400051FF8346009101223046394603F08DFF3E
:10315000194A1A4B03F0DCF906460F460122404695
:10316000294603F082FF5A46009B03F0D3F832460B
:103170003B4603F0BFFA06460F4601225046294659
:1031800003F073FF0E4DDFF858802A46434603F0E4
:10319000BFF932463B4603F0BBF92A46434603F0EB
:1031A000B7F9002CD8BF81F0004106B0BDE8F08D22
:1031B0000000F03F0000F07F075C143326A6913C2E
:1031C000182D4454FB21F93F0000E03FAC550000AE
:1031D000C2550000365500004C5500003333EF3F18
:1031E000FB21E93F2DE9F84F04460D4621F0004050
:1031F00000917349814211DC7249884201DC06D199
:103200002CB120462946BDE8F84FFFF742BE6E4874
:10321000002DCCBF6D496E49BDE8F88F6D498142E4
:1032200011DD6D498142D8BF4FF0FF366DDD20467C
:103230002946FFF7C5FD042808BFFFF735FE2046E5
:103240002946BDE8F88F6549654F25F00045814264
:1032500033DD6449814219DD002632464FF0804358
:103260002046294602F00EFE80468A46012220466C
:10327000294603F0FAFE00223B4603F03BFA4246A1
:10328000534602F0AFFE04460D463EE00126002202
:10329000BA463B462046294602F0F4FD80460F46DA
:1032A000002253462046294603F024FA42463B4674
:1032B00002F098FE04460D4627E04B4981421BDD93
:1032C000DFF828A10226002253462046294603F0B3
:1032D00021F800223B4602F0D5FD80460F46002231
:1032E00053462046294603F005FA42463B4602F083
:1032F00079FE04460D4608E0032622462B460020B0
:103300003B4902F06FFE04460D4622462B4610460E
:10331000194602F0FFFF8B46824602460B4602F03A
:10332000F9FF07460246334888460B460621784493
:10333000FFF75AFD52465B4602F0ECFF82462E48EC
:103340008B463A46434605217844FFF74DFD3A4601
:10335000434602F0DFFF02460B46002E5046594618
:103360000CDA02F08FFD22462B4602F0D3FF01B0AB
:1033700022462B46BDE8F04F03F0CAB802F082FDAA
:1033800022462B4602F0C6FF1C4A7A4402EBC603D3
:10339000D3E9002303F0AEF922462B4603F0AAF945
:1033A000174A7A4402EBC603D3E9002303F0B0F8CE
:1033B000009A002AB8BF81F00041BDE8F88F0000F4
:1033C000000010440000F07F182D4454FB21F93F09
:1033D000FB21F9BF0000DC3F0000203E0000F33F6E
:1033E0000000F03F0000E63F008003400000F83F8F
:1033F0000000F0BF4E5300000C530000AA52000022
:10340000725200002DE9F04D9446CCF1000423F0F7
:1034100000464CEA0404524F46EAD4749A46884661
:1034200021F00042BC4206D8454240EA050442EA87
:10343000D474BC4204D9BDE8F04D6246FFF72CBD00
:10344000AAF14055A5F17F6555EA0C040BD0022482
:1034500004EAAA74434DDFF810E144EAD87452EA52
:10346000000B04D00CE0BDE8F04DFFF7BBBE002C14
:1034700014BF012CBDE8F08D022C30D0032C32D0CB
:1034800056EA0C0B0AD0BE4220D1BA4209D126F02E
:10349000804622F080423346114617E000291ADBAD
:1034A00025E0DFF8C8B0FB44002C04BFDBE90001D5
:1034B000BDE8F08D012C02BFDBE9000181F0004185
:1034C000BDE8F08D022C0AD0032C0CD0BA4212D1E8
:1034D000B8F1000F0BDA23482549BDE8F08D2846E6
:1034E0002449BDE8F08D28467146BDE8F08D1D48A1
:1034F0002149BDE8F08D921B12153C2AC4BF194822
:103500001D490EDCBAF1000FBEBF12F13C0F0020C6
:10351000014606DB624602F065FD21F00041FFF73F
:1035200061FE002C08BFBDE8F08D012C04BF81F0C6
:103530000041BDE8F08D114A114B022C07D003F079
:10354000D9F82A46BDE8F04D0A4B03F0D3B803F092
:10355000D1F82A46BDE8F04D064B02F0D9BF000075
:103560000000F07F182D4454FB2109C006520000D2
:10357000FB21F9BFFB210940FB21F93F075C143314
:1035800026A6A13C2DE9F0410446E07800F0C006F3
:10359000E07800F03F05607800F0010098B1EF108E
:1035A0002846E91705EB5171C910A5EBC101491C6B
:1035B00001F0FF080B48006820B10A484146026844
:1035C0003846904700BF607800F0080030B10548E9
:1035D000406818B1B011034A516888470020BDE81F
:1035E000F0810000240E002010B56FF00400FEF7FB
:1035F0005BFD0A4800680A49B0FBF1F00949087010
:103600000846007800EB4001C1EBC0104FF6FF7197
:1036100001EAC0000449088010BD0000100000202D
:1036200000127A00000E0020020E00200146114A0E
:1036300012884A434FF0E0235A6100229A611A46E9
:10364000126942F001021A6100BF4FF0E0221069D6
:1036500000F001021AB100F48032002AF5D04FF0D8
:10366000E022126922F001024FF0E0231A610022E9
:103670009A617047020E00200146114A12784A43AF
:103680004FF0E0235A6100229A611A46126942F013
:1036900001021A6100BF4FF0E022106900F0010240
:1036A0001AB100F48032002AF5D04FF0E0221269FE
:1036B00022F001024FF0E0231A6100229A61704764
:1036C000000E002038B5044664B120208DF80000BB
:1036D00028208DF8010030208DF8020038208DF868
:1036E000030004E0A32204216846FCF7E9FE6A46D1
:1036F000042140F69E2002F037FA01F021FE38BD89
:103700003EB5044602208DF80000CA208DF8010065
:10371000E3208DF8020009208DF803006A46042199
:10372000682002F021FAA3208DF8000004F0400088
:1037300048B1C0208DF80100C8208DF80200C220D9
:103740008DF8030006E0A3208DF801008DF802003B
:103750008DF8030004F4C07048B1C4208DF8040053
:10376000CC208DF80500C6208DF8060006E0A320C9
:103770008DF804008DF805008DF80600A3208DF863
:1037800007008DF808008DF809006A460A2140F606
:10379000A72002F0E9F904F0030018B120208DF809
:1037A000000002E0D8208DF800006A46012140F6B2
:1037B000B62002F0D9F904F0200018B1012000F081
:1037C000ADF802E0002000F0A9F804F4C07008B3DE
:1037D00004F4807060B1B2208DF800008B208DF869
:1037E0000100B6208DF802009B208DF803000BE04D
:1037F000B0208DF8000080208DF80100B4208DF8F5
:10380000020090208DF803006A46042140F6A220B1
:1038100002F0AAF904F0010020B3F8208DF80000AE
:103820006A4601214FF40B6002F09EF9FA2107204D
:1038300000F094FB072000F05BFB012000F07BFB15
:10384000642000F05BFC4FF4FA7000F06AFCC821C1
:10385000304800F00BFB282000F024FB0A2000F089
:1038600034FB08E0D8208DF800006A4601214FF4AF
:103870000B6002F079F904F0020018B1D9208DF83C
:10388000000002E0D8208DF800006A46012140F2D5
:103890003D7002F069F904F0040018B1012000F055
:1038A00069F802E0002000F065F804F0100018B19B
:1038B0000120FFF707FF02E00020FFF703FF44F0BD
:1038C00008001549488101F03BFD0020124988732A
:1038D00004F0400018B10846807B801D887304F412
:1038E000C07020B10C48807B801D0B49887304F0A8
:1038F000140020B10848807B10300749887304F019
:10390000030020B10448807B001D03498873002018
:103910003EBD000009E3CA02240E00203EB5044665
:103920006CB10EA1D1E900208968CDE90020029197
:103930006A4609214FF4976002F016F93EBD0AA2CB
:10394000D2E900109268CDE9010200916A4609218E
:103950004FF4976002F008F9F0E70000B8AAB38DC1
:10396000B4980D355D000000B8AAAAAAB088C3C5F6
:10397000C700000038B5044664B1C0208DF80000CF
:10398000C2208DF80100C4208DF80200C6208DF8F9
:10399000030004E08B2204216846FCF791FD6A468F
:1039A000042140F6982002F0DFF801F0C9FC38BD90
:1039B00010B5C8234FF48062024940F6F63001F09A
:1039C00053FB10BD6E7900082DE9F04F8DB007460E
:1039D000884615469946DDE9166B002400203080A4
:1039E0006B49887B5A4605A901F00AFC18B1601E94
:1039F0000DB0BDE8F08F6648807A00F01400002812
:103A000067D09DF8140000069DF8151040EA0140AB
:103A10009DF8161040EA01209DF817100843286011
:103A20009DF8180000069DF8191040EA01409DF825
:103A30001A1040EA01209DF81B10084368609DF8A9
:103A40001C0000069DF81D1040EA01409DF81E1064
:103A500040EA01209DF81F100843A8609DF820004F
:103A600000069DF8211040EA01409DF8221040EA2E
:103A700001209DF823100843E86004F11000C4B24F
:103A8000286800140190686800140290A868001467
:103A90000390E8680014049001984043029901FBE8
:103AA0000100039901FB0100049901FB010ABAF12D
:103AB000706F02DBBAF1885F05DD01F041FC002088
:103AC0003080401E94E7B6F9000040F480703080EA
:103AD00000BF2F48807A00F0400020B305A9601C89
:103AE000085C095D40EA012000B2A8F8000005A9C1
:103AF000E01C095C05AAA01C105C41EA002000B291
:103B0000A8F8020005A9601D095C201D105C41EAAF
:103B1000002000B2A8F80400A01DC4B2B6F900004D
:103B200040F0080030801A48408900F4C07008B3A3
:103B300005A9601C085C095D40EA012000B23880DC
:103B400005A9E01C095C05AAA01C105C41EA002044
:103B500000B2788005A9601D095C201D105C41EA57
:103B6000002000B2B880A01DC4B2B6F9000040F039
:103B7000700030800648807A00F0030018B105A973
:103B80000819FFF7FFFC484600F002FF00202FE76E
:103B9000240E002030B585B0044616A207CA02AB39
:103BA00007C3C82C03DD4FF0FF3005B030BDC8207F
:103BB00090FBF4F0401E85B2280A8DF80000E8B2B0
:103BC0008DF801006A46022140F2162001F0CCFF78
:103BD00010B14FF0FF30E8E702AA0C2140F6C120F7
:103BE00001F0C2FF10B14FF0FF30DEE704488481DE
:103BF0000020DAE7FEF2ABC4AAF1DFDFBBAFDFDF04
:103C0000240E00201FB504464848007A00F0030047
:103C100054F8200001904548007A00F0040010B1EB
:103C20000198404201904148007AC0F3C10054F825
:103C3000200002903D48007A00F0200010B1029868
:103C4000404202903948007AC0F3811054F82000B5
:103C500003903648008900F4807010B10398404208
:103C600003903349019880FB0101800F40EA8100F5
:103C700001902F49029880FB0110820042EA917066
:103C800002902B49039880FB0110820042EA917058
:103C900003900198000E8DF800000198000C8DF83B
:103CA00001000198000A8DF802000198C0B28DF859
:103CB00003006A4604214FF4747001F055FF18B1F7
:103CC0004FF0FF3004B010BD0298000E8DF80000D8
:103CD0000298000C8DF801000298000A8DF802008D
:103CE0000298C0B28DF803006A4604214FF4757043
:103CF00001F03AFF10B14FF0FF30E3E70398000EF8
:103D00008DF800000398000C8DF801000398000A5C
:103D10008DF802000398C0B28DF803006A460421B2
:103D20004FF4767001F020FFCCE70000240E002055
:103D300009E3CA0210B586B0044647A000680390A4
:103D400046A00068029046A00068019045A0006867
:103D5000009004F0030003A9085C8DF8140003A888
:103D6000C4F3C101405C8DF8150003A8C4F38111B0
:103D7000405C8DF8160004F0030002A9085C8DF881
:103D8000100002A8C4F3C101405C8DF8110002A824
:103D9000C4F38111405C8DF8120005AA032140F2A2
:103DA000264001F0E1FE18B14FF0FF3006B010BD23
:103DB00004AA032140F22A4001F0D6FE10B14FF0D0
:103DC000FF30F3E7019805900098049004F0040098
:103DD00058B19DF8140040F001008DF814009DF8D2
:103DE000100040F001008DF8100004F0200058B1E0
:103DF0009DF8150040F001008DF815009DF81100A8
:103E000040F001008DF8110004F4807058B19DF865
:103E1000160040F001008DF816009DF8120040F0E9
:103E200001008DF8120005AA03214FF4886001F00B
:103E30009BFE10B14FF0FF30B8E704AA032140F217
:103E4000314001F091FE10B14FF0FF30AEE706486F
:103E500004810020AAE700004CCD6C000CC92C00A6
:103E60003656760026466600240E0020F8B5054634
:103E70000E464FF47A7095FBF0F000FB06F4200E2E
:103E80008DF80000200C8DF80100200A8DF802004A
:103E9000E0B28DF803006A4604214FF4AE7001F0E1
:103EA00063FEF8BD38B50446052094FBF0F084B2FB
:103EB00020128DF80000E0B28DF801006A46022160
:103EC0004FF4AD7001F050FE38BD38B50446052002
:103ED00094FBF0F084B220128DF80000E0B28DF86F
:103EE00001006A4602214FF4AC7001F03DFE38BD7E
:103EF00038B504460020009004F0010020B19DF880
:103F0000000040F03000009004F0020020B19DF865
:103F1000000040F00C00009004F0040020B19DF877
:103F2000000040F0030000906A4601214FF4A470A5
:103F300001F01AFE38BD38B50446012C01DA01241F
:103F400002E0042C00DD0424601EC0B200906A462A
:103F5000012140F24F1001F007FE38BD2DE9FC476A
:103F600006460F4606F0070010B1B7F5C86F03DD2F
:103F70004FF0FF30BDE8FC87384602F089FE8146ED
:103F8000594902F03BFD8046684600F09BFE9DF8D3
:103F90000000022806D0042816D0082826D01028B1
:103FA00048D135E04FF08D41404602F0B9FE8146E0
:103FB00002F036FE84B24D49404602F0B1FE814621
:103FC00002F02EFE85B238E04FF08C41404602F000
:103FD000A7FE814602F024FE84B24549404602F025
:103FE0009FFE814602F01CFE85B226E04FF08B4119
:103FF000404602F095FE814602F012FE84B23D4931
:10400000404602F08DFE814602F00AFE85B214E0C1
:104010004FF08A41404602F083FE814602F000FEE6
:1040200084B23549404602F07BFE814602F0F8FD3D
:1040300085B202E04FF0FF309CE700BF20128DF800
:104040000400E0B28DF8050028128DF80600E8B2F1
:104050008DF8070006F00100A0B101AA02214FF47B
:10406000EA7001F081FD10B14FF0FF3082E70DF1F1
:10407000060202214FF4927001F076FD10B14FF06C
:10408000FF3077E706F00200A0B101AA02214FF449
:10409000EC7001F069FD10B14FF0FF306AE70DF1EF
:1040A000060202214FF4947001F05EFD10B14FF052
:1040B000FF305FE706F00400A0B101AA02214FF42F
:1040C000EE7001F051FD10B14FF0FF3052E70DF1ED
:1040D000060202214FF4967001F046FD10B14FF038
:1040E000FF3047E7002045E7000048430000404616
:1040F0000000C045000040450000C04438B50446FB
:10410000052094FBF0F085B228128DF80000E8B28B
:104110008DF801006A4602214FF4EF7001F024FD92
:1041200038BD38B50446052094FBF0F085B228125E
:104130008DF80000E8B28DF801006A4602214FF4C4
:10414000ED7001F011FD38BD00BF054A128802F084
:104150004002002AF9D0C2B2014B1B1D1A807047E1
:10416000004800407CB5054628494968087801ABFD
:1041700004220D21FDF712FA08B107207CBD9DF83D
:104180000700C0F301109DF8041001F0E00140EABF
:10419000E1008DF800009DF80700C0F381009DF854
:1041A000051001F0E00140EAE1008DF801009DF802
:1041B000070000F003009DF8061001F0E00140EA5E
:1041C000E1008DF8020000241CE01DF8040018B97D
:1041D000002045F8240013E00D4845F8240006E0CF
:1041E00055F824000B4902F09BFD45F824001DF80A
:1041F0000400401EC0B20DF804000028F0D100BF3A
:10420000601CC4B2032CE0DB0020B7E7840D002063
:104210007B14AE3E1D5A843F2DE9F04F87B0054612
:104220000C46914601208DF8100000208DF81100F9
:10423000FE4A1268917CFD4A5268107804AB022253
:10424000FDF752FA20B14FF0FF3007B0BDE8F08F14
:10425000C820FFF7EBF900208DF81000F34A126830
:10426000D17BF24A5268107804AB0122FDF73CFA88
:1042700010B14FF0FF30E8E7EC4A12685179EB4A91
:104280005268107804AB0122FDF72EFA10B14FF0FE
:10429000FF30DAE7E54A1268917CE44A5268107808
:1042A00004AB0122FDF720FA10B14FF0FF30CCE74C
:1042B000DE4A1268D17DDD4A5268107804AB0122D3
:1042C000FDF712FA10B14FF0FF30BEE7D74A12687F
:1042D0001179D64A5268107804AB0122FDF704FA2E
:1042E00010B14FF0FF30B0E70C208DF81000CF4A2E
:1042F00012681179CD4A5268107804AB0122FDF79B
:10430000F3F910B14FF0FF309FE70F20FFF78EF960
:10431000C648806A407A8DF81000C44A12689178C5
:10432000C24A5268107804AB0122FDF7DDF910B1E2
:104330004FF0FF3089E7BD48806A007A8DF81000A1
:10434000BA4A12685178B94A5268107804AB01220F
:10435000FDF7CAF910B14FF0FF3076E7B9F1000F61
:1043600007D0B248806A807A40F0E0008DF81000F3
:1043700004E0AE48806A807A8DF81000AB4A12687B
:104380009179AA4A5268107804AB0122FDF7ACF982
:1043900010B14FF0FF3058E7B9F1000F07D0A34834
:1043A000806AC07A40F0E0008DF8100003E0A04879
:1043B000C07A8DF810009D4A1268D1799B4A5268E4
:1043C000107804AB0122FDF78FF910B14FF0FF30E8
:1043D0003BE7B9F1000F02D0C820FFF727F94020D2
:1043E0008DF81000914A12681179904A526810783D
:1043F00004AB0122FDF778F910B14FF0FF3024E74C
:1044000078208DF81000894A12685179874A5268DD
:10441000107804AB0122FDF767F910B14FF0FF30BF
:1044200013E783498889FFF701F900208DF8100010
:104430007E4A126851797D4A5268107804AB012295
:10444000FDF752F910B14FF0FF30FEE6774A1268DF
:10445000917A764A5268107804AB0222FDF79EF8F2
:1044600010B14FF0FF30F0E69DF811009DF81010EC
:1044700040EA012B0C209BFBF0F0C6B20020A860A4
:1044800068602860A06060602060824665E0674ADE
:104490001268D17A654A5268107804AB0C22FDF795
:1044A0007DF810B14FF0FF30CFE69DF811009DF878
:1044B000101040EA012000B2ADF808009DF813008A
:1044C0009DF8121040EA012000B2ADF80A009DF8F4
:1044D00015009DF8141040EA012000B2ADF80C0060
:1044E000BDF90810206808442060BDF90A10606812
:1044F00008446060BDF90C10A0680844A0609DF8F5
:1045000017009DF8161040EA012000B2ADF8000037
:104510009DF819009DF8181040EA012000B2ADF88E
:1045200002009DF81B009DF81A1040EA012000B21D
:10453000ADF80400BDF90010286808442860BDF9F2
:104540000210686808446860BDF90410A86808444F
:10455000A8600AF1010000F0FF0AB24597DB344879
:10456000D0F800C02868C117090441EA10410704C7
:10457000624600233846FBF76EFE32460023CDE943
:104580000201FBF768FE28602948D0F800C068687F
:10459000C117090441EA1041070462460023384666
:1045A000FBF759FE32460023CDE90201FBF753FE2B
:1045B00068601F48D0F800C0A868C117090441EA24
:1045C00010410704624600233846FBF744FE32469A
:1045D0000023CDE90201FBF73EFEA8601448D0F8A5
:1045E00004C02168C817000440EA11480F0462465D
:1045F000002338464146FBF72EFE32460023CDE924
:104600000201FBF728FE20600948D0F804C060686A
:10461000C117090441EA10410704624600233846E5
:10462000FBF719FE3246002304E00000840D002051
:104630008C850008CDE90201FBF70DFE6060114892
:10464000D0F804C0A068C117090441EA104107046A
:10465000624600233846FBF7FEFD32460023CDE9D3
:104660000201FBF7F8FDA060A068002804DDA06847
:10467000A0F58030A06003E0A06800F58030A06065
:104680000020E2E58C8500082DE9FC5F06460F4618
:1046900000253D494968087801AB03220D21FCF74C
:1046A0007DFF10B10720BDE8FC9F9DF8040000F0DD
:1046B0001F008DF804009DF8050000F01F008DF824
:1046C00005009DF8060000F01F008DF8060000248C
:1046D00056E056F8240057F82410A0EB010BBBF16C
:1046E000000F01DB594601E0CBF10001084602F062
:1046F000B7FA4FF08F41009002F080F9814601A88F
:10470000005D68B32149086802F0C2FA8346594641
:104710001F4802F073F9804604E01E49404602F04B
:10472000FFFA804601A8005D401EC0B201A90855ED
:104730000028F2D14146484602F060F983464FF026
:104740007E5102F0EBFB82462AF0004B0F48816954
:10475000584602F0B1FB12D20120A04005430EE002
:104760000A480169484602F0A7FA05D3074841699B
:10477000484602F0A1FB02D20120A0400543641C80
:10478000032CA6DB28468EE7840D00208C850008CC
:1047900000B04C4554E3853F10B50446204600F078
:1047A0000FF80346E01C00F00BF843EAC00083B2A8
:1047B000A01D00F005F843EA801083B2184610BD32
:1047C000014691F90020002A01DD00201EE091F948
:1047D0000020002A01DA042018E091F90120002AC3
:1047E00001DD012012E091F90120002A01DA052003
:1047F0000CE091F90220002A01DD022006E091F987
:104800000220002A01DA062000E00720704700009D
:1048100008B5FDF78FFCFDF74DF849A200210E20E9
:10482000FDF712FA4AA204210020FDF70DFA4CA26E
:1048300004216820FDF708FA4AA206210020FDF7AE
:1048400003FA47A206216020FDF7FEF976E048480A
:10485000C46B0021204602F02FFA07D284F00044F6
:104860002D2204215020FDF711F904E0202204211B
:104870005020FDF70BF9204602F0D2F90546102032
:1048800002232A46042100905820FDF79BF939495C
:10489000204602F045FA064602F0C2F9054610200D
:1048A00001232A46042100907020FDF78BF9642033
:1048B000FEF7BCFEFCF7E0F8054601F0EBFC2C49E6
:1048C0000871087902F0E4F90446204602F0A8F9DC
:1048D0000546102002232A46062100905020FDF7AD
:1048E00071F92449204602F01BFA064602F098F9B5
:1048F0000546102001232A46062100907020FDF76E
:1049000061F91B488068002804DA19488068404231
:10491000194908601648C068002804DA14488068FD
:1049200040421649086012480078642300901348FA
:1049300002681148016812A0FBF7B2FC87E700008B
:1049400042616C616E6365204D6F6465000000001C
:1049500043757220416E676C653A2030000000009C
:104960002E30200044697374616E63653A20300014
:10497000340E002000002041080000200C00002020
:104980007B4125643A25643A25643A25647D2400F8
:104990007047000070B50446002624F00104184852
:1049A00090F8240008B1002070BD1548807A10B935
:1049B0004FF0FF30F8E71248057C807A204010491C
:1049C00008740846007CA04202D04FF0FF3600E099
:1049D000002614B90A48007D18B1012001F05EF9E3
:1049E00002E0002001F05AF93CB100F0A9FC20B12E
:1049F000034805744FF0FF30D6E73046D4E7000097
:104A0000840D00202DE9F04F99B004460D4616465E
:104A10004FF07E574FF000084FF000094FF0000AAA
:104A200012A813A918AB0EAACDE9001014A916A854
:104A3000FEF7CAFF18B1012019B0BDE8F08FBDF82C
:104A40004C0000F4807000287ED00E9802F008F927
:104A500083464FF09D4101F0D1FF07460F9802F0C9
:104A6000FFF883464FF09D4101F0C8FF8046109843
:104A700002F0F6F883464FF09D4101F0BFFF8146FA
:104A8000119802F0EDF883464FF09D4101F0B6FF1A
:104A9000824639464FF0804002F042F9494605907F
:104AA00002F03EF9414607904FF0404002F038F9DD
:104AB0005146059002F034F90690079901F030FF55
:104AC000834601F001FFCDE90801FEF753FA4FF0EC
:104AD0006632544BCDE90A0101F01CFCCDE90C0112
:104AE00001F09EF9206049464FF0804002F018F92D
:104AF0004946029002F014F9414604904FF04040BC
:104B000002F00EF94146029002F00AF9039004996E
:104B100002F004FA83464FF07E5101F001FF059048
:104B200001F0D2FECDE9080139464FF0804002F095
:104B3000F7F84146039002F0F3F8494604904FF02D
:104B4000804002F0EDF800E068E05146039002F08A
:104B5000E7F88346049901F0E3FE059001F0B4FE06
:104B6000CDE90601DDE90823FEF74CFC4FF0663283
:104B70002C4BCDE90A0101F0CDFBCDE90C0101F090
:104B80004FF928605146504602F0CAF84946049051
:104B9000484602F0C5F841460390404602F0C0F88E
:104BA00039460190384602F0BBF80090019901F0B7
:104BB000B7FE0290039902F0B1F98346049902F01E
:104BC000ADF9059001F080FECDE908015146384667
:104BD00002F0A6F849460490404602F0A1F803907E
:104BE000049901F09DFE4FF08041059002F098F885
:104BF000834601F069FECDE90601DDE90823FEF7F1
:104C000001FC4FF06632074BCDE90A0101F082FB4F
:104C1000CDE90C0101F004F9306001E002200BE75E
:104C2000002009E766A64C4070B50024FCF776FA30
:104C300000F022F9002840D1782000F02DFFC4B206
:104C40000CB1012070BD7820FFF7A4FEC4B20CB1F6
:104C50000220F7E7642000F0D1FEC4B20CB10320BB
:104C6000F0E7FEF7A5FEC4B20CB10420EAE7144851
:104C7000FFF792FD0546FFF75DF8C4B20CB10520C1
:104C8000E0E740F27310FEF73BFDC4B20CB1062022
:104C9000D8E76420FEF77EFFC4B20CB10720D1E74D
:104CA00000F0B4FF04460CB10820CBE7012000F06F
:104CB000A1FDC4B20CB10920C4E70020C2E7000086
:104CC000B00D002001461148407A30B1012807D0CC
:104CD000022808D003280CD108E0022008700BE05D
:104CE0000420087008E00820087005E01020087013
:104CF00002E04FF0FF30704700BF0448C07C18B19D
:104D000008784006000E08700020F4E7840D0020AB
:104D100001461348407A30B1012808D002280AD051
:104D2000032810D10BE04FF4804008800EE041F6DC
:104D30009C7008800AE04FF48050088006E04FF431
:104D40000060088002E04FF0FF30704700BF044869
:104D5000C07C10B10888401008800020F5E70000F2
:104D6000840D002001460248007C08700020704736
:104D7000840D002001460F48007A30B1012807D089
:104D8000022809D003280FD10AE0FA2008800EE09B
:104D90004FF4FA7008800AE04FF47A70088006E059
:104DA0004FF4FA60088002E00020088000BF00BFD6
:104DB00000207047840D002001460E48007A30B173
:104DC000012807D0022808D003280CD108E00A489F
:104DD00008600BE00948086008E00948086005E041
:104DE0000848086002E04FF0FF30704700BF002025
:104DF000FBE70000840D0020000003430000834215
:104E0000333303423333834101461248C07A0828C2
:104E100017D2DFE800F01704070A0D101318BC20A2
:104E2000088013E06220088010E02A2008800DE04E
:104E3000142008800AE00A20088007E00520088086
:104E400004E000BF00BF0020088000BF00BF0020BA
:104E500070470000840D00200146064890F82400A9
:104E600010B14FF0FF3070470248C0890880002021
:104E7000F9E70000840D00201CB580208DF80000AB
:104E8000654A1268917C644A526810786B46012228
:104E9000FCF72AFC10B14FF0FF301CBD6420FEF778
:104EA000C5FB00208DF800005B4A1268917C5A4ACD
:104EB000526810786B460122FCF716FC10B14FF0D7
:104EC000FF30EAE7544A1268917D534A52681078DD
:104ED0006B460622FCF762FB10B14FF0FF30DCE7B7
:104EE0009DF80500C007400F9DF8031001F0010177
:104EF00040EA41009DF8011001F0010140EA01047F
:104F000094B1012C03D101214348C17431E0022C3A
:104F100003D100214048C1742BE021463FA0FBF79C
:104F2000BFF94FF0FF30B8E73B4A1268D1783A4AF0
:104F3000526810786B460122FCF730FB10B14FF03D
:104F4000FF30AAE79DF8000000F00F042CB93D489F
:104F5000FBF7A6F94FF0FF309FE7042C06D13AA0EB
:104F6000FBF79EF901212C48C17402E000212A4878
:104F7000C174FF2128488172FF2027490872FF2150
:104F800025484172C1724FF6FF71C181FF21017442
:104F900081740121017380F82210002180F8231010
:104FA000417501751630016041608160163880F8E6
:104FB000241080F82510C1844FF4FA6000F062FCE0
:104FC00010B14FF0FF3068E7022000F02BFB10B16A
:104FD0004FF0FF3061E72A2000F0CEFC10B14FF017
:104FE000FF305AE7322000F009FD10B14FF0FF30DA
:104FF00053E70020FFF7CEFC10B14FF0FF304CE735
:10500000002000F051FB10B14FF0FF3045E70020C9
:1050100000F042FD002040E7840D0020556E7375BE
:1050200070706F7274656420736F667477617265F7
:105030002070726F64756374207265762025642E0B
:105040000A000000B886000848616C662073656E2F
:105050007369746976697479207061727420666FFF
:10506000756E642E0A0000002DE9F04385B00546F8
:105070000E4690469946294890F8250020B14FF0F9
:10508000FF3005B0BDE8F08316B94FF0FF30F8E708
:10509000002423E0281B102801DD102000E0281B3D
:1050A00087B232193946204600F05EFD10B14FF04C
:1050B000FF30E6E701AA3946204600F001F910B1B9
:1050C0004FF0FF30DDE730193A4601A9FBF7CCF984
:1050D00010B16FF00100D4E7E01984B2AC42D9DB23
:1050E0004FEA28208DF8000008F0FF008DF801003D
:1050F0000A4A1268917E094A526810786B46022269
:10510000FCF7F2FA10B14FF0FF30BAE70121034883
:1051100080F82510A0F826900020B2E7840D00202A
:1051200038B50446282C02DD4FF0FF3038BDDCB91D
:10513000002000F0EBFB00208DF8000007208DF828
:1051400001002E4A1268917C2C4A526810786B46F6
:105150000222FCF7C9FA10B14FF0FF30E6E7002158
:10516000264801750020E1E7012000F0CFFB202058
:105170008DF80000012C06D100208DF801000520DB
:1051800000F0FAFB17E0052C06DC01208DF8010089
:10519000052000F0F1FB0EE0142C06DC02208DF857
:1051A00001000A2000F0E8FB05E003208DF8010073
:1051B000142000F0E1FB9DF80100072101EB8010B5
:1051C000C0B28DF801000D4A1268917C0B4A5268FA
:1051D00010786B460222FCF787FA10B14FF0FF30CF
:1051E000A4E708210548817200210173012101759E
:1051F0000020FFF7CFFB002098E70000840D00207F
:10520000F8B504460F4616462C4890F8240010B90D
:105210004FF0FF30F8BD2948807A10B94FF0FF30C9
:10522000F8E7264A1268917A244A526810786B4649
:105230000222FCF7B3F910B14FF0FF30EAE79DF816
:1052400001009DF8001040EA0125A54203DA002084
:105250003070401EDEE7194840684088B5EB600FAB
:1052600017DD164A1268517C144A526810786B4652
:105270000122FCF793F910B14FF0FF30CAE79DF817
:10528000000000F0100020B100F05AF86FF00100AB
:10529000C0E7E2B2094B1B68D97A084B5B68187803
:1052A0003B46FCF77BF910B14FF0FF30B2E795FBBE
:1052B000F4F0401E30700020ACE70000840D0020A8
:1052C000F8B504460D46164616B94FF0FF30F8BD46
:1052D0001A48807A10B94FF0FF30F8E720128DF8A5
:1052E0000000E0B28DF801009DF801002844134948
:1052F00049684989884202DD4FF0FF30E7E70F4AED
:105300001268117E0D4A526810786B460222FCF733
:10531000EBF910B14FF0FF30D9E7EAB2074B1B6849
:10532000597D064B5B6818783346FCF737F910B1A6
:105330004FF0FF30CBE70020C9E70000840D0020CC
:1053400008B57048807A10B94FF0FF3008BD0020D2
:1053500000906C4A1268D17B6A4A526810786B469A
:105360000122FCF7C1F910B14FF0FF30EEE7654ABA
:1053700012685179634A526810786B460122FCF733
:10538000B3F910B14FF0FF30E0E75E4A12681179CF
:105390005C4A526810786B460122FCF7A5F910B1FF
:1053A0004FF0FF30D2E7574890F82400002853D040
:1053B0000C200090534A12681179524A52681078B2
:1053C0006B460122FCF790F910B14FF0FF30BDE7BA
:1053D0003220FEF72BF9C02000904A48807A00F076
:1053E000010020B19DF8000040F020000090454AE7
:1053F00012681179434A526810786B460122FCF713
:1054000073F910B14FF0FF30A0E73E48407C10B177
:105410000220009001E0002000903A4A1268D17BFF
:10542000384A526810786B460122FCF75DF910B1DA
:105430004FF0FF308AE700200090324A126851791D
:10544000304A526810786B460122FCF74DF900286B
:1054500055D04FF0FF3079E704200090294A1268B8
:105460001179284A526810786B460122FCF73CF902
:1054700010B14FF0FF3069E72248807C20B9214805
:10548000807A00F0010010B94020009001E0602017
:1054900000901C4A126811791A4A526810786B46BB
:1054A0000122FCF721F910B14FF0FF304EE7322016
:1054B000FEF7BCF81348407C10B10120009001E0D9
:1054C000002000900F4A1268D17B0E4A5268107873
:1054D0006B460122FCF708F910B14FF0FF3035E7B9
:1054E000084A12685179074A52681078054B103300
:1054F0000122FCF7F9F810B14FF0FF3026E7002049
:1055000024E70000840D00202DE9F04F8DB0834684
:105510000F4602200C90424890F8240020B1002051
:1055200000F068F9012600E0002603A8FFF722FC3E
:1055300005A8FFF7C7FB01A8FFF766FC02A8FFF765
:105540008BFC374890F80AA004A8FFF70BFC002456
:1055500007E0002239465846FEF75EFE00B902E039
:10556000641C022CF5DB00BF022C01D1002528E0D1
:10557000002407E0012206A909A8FEF74DFE00B9A4
:1055800002E0641C022CF5DB00BF022C01D10025D7
:1055900017E006A93846FDF799FC00F0FF0809A9B5
:1055A0005846FFF771F800F0FF090025B9F1000F28
:1055B00001D145F00105B8F1000F01D145F0020518
:1055C00000BFFF2016490872FF2115484172C172C1
:1055D0004FF6FF71C181FF218172017401210173B6
:1055E000BDF80C0000F04EF99DF8140000F01AF818
:1055F000BDF8040000F0C0F9BDF8080000F0FEF9A5
:10560000504600F049FA9DF81000FFF7C3F916B1B3
:10561000012000F0EFF828460DB0BDE8F08F000043
:10562000840D002038B504461E48807A10B94FF02A
:10563000FF3038BD022C06D0042C07D0082C08D02F
:10564000102C0CD108E0002000900BE00820009006
:1056500008E01020009005E01820009002E04FF0D4
:10566000FF30E6E700BF0F48407A9DF80010B0EB2E
:10567000E10F01D10020DCE70A4A1268D179094A1A
:10568000526810786B460122FCF72EF810B14FF0EB
:10569000FF30CEE79DF80000C110024841720020A3
:1056A000C7E70000840D002038B504465048807CD0
:1056B000A04201D1002038BD002C46D04C4A1268CF
:1056C00011794B4A526810786B460122FBF766FF4E
:1056D00010B14FF0FF30EEE79DF8000020F0200001
:1056E0000090434A12681179414A526810786B461B
:1056F0000122FBF7F9FF10B14FF0FF30DBE7032089
:10570000FDF794FF02200090394890F8220020B164
:105710009DF8000040F080000090354890F823008C
:1057200020B19DF8000040F030000090304A12682F
:10573000117D2F4A526810786B460122FBF7D4FF87
:10574000002851D04FF0FF30B5E7294A126811798F
:10575000274A526810786B460122FBF71FFF10B1F1
:105760004FF0FF30A7E72248807A00F0010028B10F
:105770009DF8000040F02000009004E09DF800003B
:1057800020F0200000901A4A12681179184A5268D5
:1057900010786B460122FBF7A7FF10B14FF0FF30E6
:1057A00089E70320FDF742FF114890F8220010B16D
:1057B0008020009001E0002000900D4890F8230028
:1057C00020B19DF8000040F030000090084A1268B7
:1057D000117D074A526810786B460122FBF784FF5F
:1057E00010B14FF0FF3066E701488474002062E793
:1057F000840D002038B50446214890F82400A042CA
:1058000001D1002038BD24B31D4890F8250010B9FF
:105810004FF0FF30F6E7002000F040FA0020FFF7DD
:1058200043FF1749C88C00F0E9F8002000901449A4
:10583000496808786B4601222321FBF755FF0121B7
:105840000F4880F82410012000F028FAFFF778FDB7
:1058500013E0002000F022FA0948007C009008497B
:10586000496808786B4601222321FBF73DFF0021A0
:10587000034880F82410FFF763FD0020C2E7000012
:10588000840D002038B504461F48807A10B94FF0C7
:10589000FF3038BDFA2C09D0B4F5FA7F09D0B4F541
:1058A0007A7F09D0B4F5FA6F0CD108E0002000909F
:1058B0000BE00820009008E01020009005E0182080
:1058C000009002E04FF0FF30E3E700BF0E48007A9F
:1058D0009DF80010B0EBE10F01D10020D9E70A4A92
:1058E00012689179084A526810786B460122FBF7DA
:1058F000FBFE10B14FF0FF30CBE79DF80000C01069
:10590000014908720020C4E7840D002038B5044620
:10591000184890F82300A04201D1002038BD14B1EE
:105920003020009001E0002000901248807C20B1DF
:105930009DF8000040F0020000900E4890F8220010
:1059400020B19DF8000040F080000090094A1268E4
:10595000117D084A526810786B460122FBF7C4FE9D
:1059600010B14FF0FF30D9E7024880F82340002003
:10597000D4E70000840D002038B504461E48807A24
:1059800010B94FF0FF3038BDBC2C02DB0120009075
:1059900015E0622C02DB0220009010E02A2C02DBD2
:1059A000032000900BE0142C02DB0420009006E0A2
:1059B0000A2C02DB0520009001E0062000900E4832
:1059C000C07A9DF80010884201D10020DBE70A4A26
:1059D00012689178084A526810786B460122FBF7EA
:1059E00083FE10B14FF0FF30CDE79DF80010024864
:1059F000C1720020C7E70000840D002038B50446BE
:105A00002448807A10B94FF0FF3038BD214890F813
:105A1000240010B14FF0FF30F7E71E48007D50B171
:105A200034B1282C04DCE0B2FFF77AFB0020ECE76D
:105A30000020FFF775FB042C01DA042404E0B4F520
:105A40007A7F01DD4FF47A744FF47A7090FBF4F0B2
:105A5000401EC0B200900F4A126851780D4A526839
:105A600010786B460122FBF73FFE10B14FF0FF307C
:105A7000CBE79DF80000401C4FF47A7191FBF0F0E9
:105A800081B20448C1810146C9894810FFF774FFFB
:105A90000020BAE7840D002038B5044604F07000F9
:105AA00010B10120009005E014B10020009001E049
:105AB000402000902B4A1268917C2A4A5268107844
:105AC0006B460122FBF710FE20B1002125488172B0
:105AD000481E38BD9DF8000020F0400121480173A8
